:100000000C942A000C9434000C9434000C943400AA
:100010000C9434000C9434000C9434000C94340090
:100020000C9434000C9434000C9434000C94340080
:100030000C9434000C9434000C9434000C94340070
:100040000C9434000C9434000C9434000C94340060
:100050000C94340011241FBECFE5D8E0DEBFCDBF25
:100060000E9436000C9446000C9400008FEF84BB75
:1000700080E885BB2FEF83ED90E3215080409040D6
:10008000E1F700C0000080E090E00895F894FFCF11
:00000001FF
