:100000000C942A000C9447000C9447000C94470071
:100010000C9447000C9447000C9411010C94470079
:100020000C9447000C9447000C9447000C94470034
:100030000C9447000C9447000C9447000C94470024
:100040000C9447000C9447000C9447000C94470014
:100050000C94470011241FBECFE5D8E0DEBFCDBF12
:1000600010E0A0E6B0E0EAEFFAE002C005900D92E1
:10007000A63BB107D9F720E0A6EBB0E001C01D9286
:10008000A13CB207E1F70E94AB010C947B050C94F4
:10009000000080FF02C0AB9A01C0AB9881FF02C094
:1000A000AA9A01C0AA9882FF02C0A99A01C0A99881
:1000B00083FF02C0A89A0895A8980895CF93C82FE7
:1000C000AC9A82958F700E944900AC98AC9A8C2FA4
:1000D0000E944900AC9887EC90E00197F1F700C0CE
:1000E0000000CF910895AD980C945E00AD9A0C94E9
:1000F0005E00CF93DF93EC018991882319F00E9471
:100100007600FACFDF91CF91089590E4699F800D3A
:10011000112480680C94730081E00E9473008FE3C7
:100120009FE10197F1F700C00000089582E00E946E
:1001300073008FE39FE10197F1F700C0000008957D
:10014000CF93A39AA29AA19AA09AA49AA59A8FE56E
:100150009AEE0197F1F700C00000AD98AC98C3E0AB
:10016000AC9A83E00E944900AC988FE19EE401972D
:10017000F1F700C00000C15099F7AC9A82E00E94EC
:100180004900AC988FE99FE00197F1F700C00000AB
:1001900088E20E94730088E00E94730081E00E9460
:1001A00073008FE39FE10197F1F700C0000086E044
:1001B0000E9473008CE0CF910C9473003E9A86B13C
:1001C000876086B9379A089597B18F71907E892B91
:1001D00087B9369A3699FECF84B195B108952091AA
:1001E000B600222381F02091BE00FC012083809183
:1001F000BF00FB0180838091C000FA0180831092D0
:10020000B60081E0089580E008958EB583608EBDCC
:100210008EB58F7B8EBD89B7806289BF1092B60084
:1002200008951F920F920FB60F9211242F933F93B0
:100230004F935F938F939F9386B597B52091BC00A2
:100240003091BD0046B557B55093BD004093BC00FA
:100250004EB550E445274EBD4091BB0041110CC046
:100260001092BA0041E04093B9001092B800109289
:10027000B7004EB54F7B4EBD88599109821B930B39
:100280008A3621E0920718F01092BB0032C03091FC
:10029000BB004091BA008C389105A0F430FD10C02D
:1002A0002091B9008091B7009091B800880F991FF4
:1002B000822B9093B8008093B7004F5F4093BA00B1
:1002C0003F5F15C02091B90081E028272093B90035
:1002D0008091B7009091B800880F991F822B90935E
:1002E000B8008093B7004F5F4093BA003E5F3093F1
:1002F000BB008091BA008D3019F51092BB0080913F
:10030000B60081111DC08091B7009091B800282FD0
:100310002F732093BF009C01207C377046E03695F8
:1003200027954A95E1F72093BE0088279870892F7A
:100330008695869586958093C00081E08093B6006F
:100340009F918F915F914F913F912F910F900FBE91
:100350000F901F901895CF93DF93CDB7DEB7A4977A
:100360000FB6F894DEBF0FBECDBF11BA8FEF82BBC0
:10037000A79AAF9A17BA8FE988BB0E94A0000E9483
:100380000501789480E80E94730080E690E00E9466
:10039000790080EC0E94730086E690E00E9479006C
:1003A000879B03C08BA1813049F4AF980E948C00D9
:1003B00080E80E94730083E790E0B8C0B09B02C061
:1003C000823049F4AF9A0E948C0080E80E9473004A
:1003D00086E790E0ABC0859908C00E948C0080E859
:1003E0000E94730089E790E0A1C0849943C00E94F5
:1003F0008C0080E80E9473008DE790E00E947900F5
:10040000B39B08C00E948C0080E80E94730084E6C1
:1004100090E027C0B49B08C00E948C0080E80E9436
:10042000730089E890E01DC0B59B08C00E948C0055
:1004300080E80E9473008BE890E013C0B69B08C070
:100440000E948C0080E80E9473008DE890E009C053
:10045000B79B09C00E948C0080E80E94730084E969
:1004600090E00E9479008FE99FE00197F1F700C0CA
:100470000000C6CF83993DC00E948C0080E80E9496
:1004800073008FE890E00E94790066E9E62E60E054
:10049000F62E8E010F5F1F4FAE014E5D5F4FBE0106
:1004A0006D5D7F4FCE0184960E94EF008823D1F0CE
:1004B0008AA11F928F938BA11F928F938CA11F9261
:1004C0008F93FF92EF921F930F930E94AA0280ECEA
:1004D0000E947300C8010E9479000FB6F894DEBF35
:1004E0000FBECDBF8FE99FE00197F1F700C000007C
:1004F000D3CF829908C00E948C0080E80E947300CC
:100500008DEA90E013C0819908C00E948C0080E8B9
:100510000E9473008FEA90E009C0809909C00E9490
:100520008C0080E80E94730082EB90E00E947900CA
:100530001BA2AE014E5D5F4FBE016D5D7F4FCE01D0
:1005400084960E94EF008FE99FE00197F1F700C0C9
:10055000000026CFAEE0B0E0E0EBF2E00C945205F4
:100560000D891E8986E08C831A8309838FEF9FE7AC
:100570009E838D83AE01475E5F4F6F89788DCE017C
:1005800001960E94CC02EF81F885E00FF11F1082E6
:100590002E96E4E00C946E05ACE0B0E0E2EDF2E003
:1005A0000C9444057C016B018A01FC0117821682C0
:1005B000838181FFBDC1CE0101964C01F70193817A
:1005C000F60193FD859193FF81916F01882309F4D2
:1005D000ABC1853239F493FD859193FF81916F0111
:1005E000853229F4B70190E00E94B404E7CF512C82
:1005F000312C20E02032A0F48B3269F030F48032CC
:1006000059F0833269F420612CC08D3239F0803387
:1006100039F4216026C02260246023C0286021C0F4
:1006200027FD27C030ED380F3A3078F426FF06C09A
:10063000FAE05F9E300D1124532E13C08AE0389EDD
:10064000300D1124332E20620CC08E3221F426FD91
:100650006BC1206406C08C3611F4206802C0883655
:1006600041F4F60193FD859193FF81916F01811112
:10067000C1CF982F9F7D9554933028F40C5F1F4F66
:10068000FFE3F9830DC0833631F0833771F0833592
:1006900009F05BC022C0F801808189830E5F1F4F83
:1006A00044244394512C540115C03801F2E06F0EDC
:1006B000711CF801A080B18026FF03C0652D70E099
:1006C00002C06FEF7FEFC5012C870E94A9042C01A7
:1006D00083012C852F77222E17C03801F2E06F0E90
:1006E000711CF801A080B18026FF03C0652D70E069
:1006F00002C06FEF7FEFC5012C870E949E042C0182
:100700002C852068222E830123FC1BC0832D90E0C2
:1007100048165906B0F4B70180E290E00E94B40494
:100720003A94F4CFF50127FC859127FE81915F0172
:10073000B70190E00E94B40431103A94F1E04F1AEE
:1007400051084114510471F7E5C0843611F089361F
:1007500039F5F80127FF07C060817181828193819B
:100760000C5F1F4F08C060817181882777FD8095DD
:10077000982F0E5F1F4F2F76B22E97FF09C09095CE
:100780008095709561957F4F8F4F9F4F2068B22E57
:100790002AE030E0A4010E94E604A82EA81844C074
:1007A000853729F42F7EB22E2AE030E025C0F22FC3
:1007B000F97FBF2E8F36C1F018F4883579F0B4C0B8
:1007C000803719F0883721F0AFC02F2F2061B22E6B
:1007D000B4FE0DC08B2D8460B82E09C024FF0AC062
:1007E0009F2F9660B92E06C028E030E005C020E1BA
:1007F00030E002C020E132E0F801B7FE07C06081BE
:100800007181828193810C5F1F4F06C0608171816D
:1008100080E090E00E5F1F4FA4010E94E604A82E26
:10082000A818FB2DFF77BF2EB6FE0BC02B2D2E7FF9
:10083000A51450F4B4FE0AC0B2FC08C02B2D2E7EC5
:1008400005C07A2C2B2D03C07A2C01C0752C24FFF7
:100850000DC0FE01EA0DF11D8081803311F4297E67
:1008600009C022FF06C07394739404C0822F867857
:1008700009F0739423FD13C020FF06C05A2C731493
:1008800018F4530C5718732C731468F4B70180E2F2
:1008900090E02C870E94B40473942C85F5CF7314D8
:1008A00010F4371801C0312C24FF12C0B70180E3C7
:1008B00090E02C870E94B4042C8522FF17C021FFF2
:1008C00003C088E590E002C088E790E0B7010CC063
:1008D000822F867859F021FD02C080E201C08BE2B0
:1008E00027FD8DE2B70190E00E94B404A51438F40E
:1008F000B70180E390E00E94B4045A94F7CFAA9421
:10090000F401EA0DF11D8081B70190E00E94B4046A
:10091000A110F5CF332009F451CEB70180E290E069
:100920000E94B4043A94F6CFF7018681978102C001
:100930008FEF9FEF2C96E2E10C946005FC0105908F
:10094000615070400110D8F7809590958E0F9F1FD1
:100950000895FC016150704001900110D8F7809516
:1009600090958E0F9F1F08950F931F93CF93DF9342
:10097000182F092FEB018B8181FD03C08FEF9FEFB3
:1009800020C082FF10C04E815F812C813D814217C3
:1009900053077CF4E881F9819F012F5F3F4F398332
:1009A0002883108306C0E885F985812F0995892B56
:1009B00029F72E813F812F5F3F4F3F832E83812F69
:1009C000902FDF91CF911F910F910895FA01AA27DF
:1009D000283051F1203181F1E8946F936E7F6E5F82
:1009E0007F4F8F4F9F4FAF4FB1E03ED0B4E03CD030
:1009F000670F781F891F9A1FA11D680F791F8A1F13
:100A0000911DA11D6A0F711D811D911DA11D20D079
:100A100009F468943F912AE0269F11243019305D33
:100A20003193DEF6CF010895462F4770405D419324
:100A3000B3E00FD0C9F7F6CF462F4F70405D4A3371
:100A400018F0495D31FD4052419302D0A9F7EACF39
:100A5000B4E0A6959795879577956795BA95C9F768
:100A600000976105710508959B01AC010A2E06945B
:100A70005795479537952795BA95C9F7620F731F14
:100A8000841F951FA01D08952F923F924F925F9251
:100A90006F927F928F929F92AF92BF92CF92DF928E
:100AA000EF92FF920F931F93CF93DF93CDB7DEB7F3
:100AB000CA1BDB0B0FB6F894DEBF0FBECDBF099487
:100AC0002A88398848885F846E847D848C849B84DE
:100AD000AA84B984C884DF80EE80FD800C811B81EC
:100AE000AA81B981CE0FD11D0FB6F894DEBF0FBE1B
:0A0AF000CDBFED010895F894FFCF8B
:100AFA00414F5320310076657273696F6E3A203028
:100B0A002E31004C2B004C2D00502F5300532C201B
:100B1A00456E642D53746F70003200330034004DFB
:100B2A002C205263350020413A2530326420433A62
:100B3A002530326420543A25303264200052005263
:060B4A002D00522B0000FB
:00000001FF
