:100000000C942A000C9447000C9447000C94470071
:100010000C9447000C9447000C9411010C94470079
:100020000C9447000C9447000C9447000C94470034
:100030000C9447000C9447000C9447000C94470024
:100040000C9447000C9447000C9447000C94470014
:100050000C94470011241FBECFE5D8E0DEBFCDBF12
:1000600010E0A0E6B0E0E6E5FAE002C005900D92EF
:10007000A03AB107D9F720E0A0EAB0E001C01D9294
:10008000AB3AB207E1F70E94AB010C9429050C943E
:10009000000080FF02C0AB9A01C0AB9881FF02C094
:1000A000AA9A01C0AA9882FF02C0A99A01C0A99881
:1000B00083FF02C0A89A0895A8980895CF93C82FE7
:1000C000AC9A82958F700E944900AC98AC9A8C2FA4
:1000D0000E944900AC9887EC90E00197F1F700C0CE
:1000E0000000CF910895AD980C945E00AD9A0C94E9
:1000F0005E00CF93DF93EC018991882319F00E9471
:100100007600FACFDF91CF91089590E4699F800D3A
:10011000112480680C94730081E00E9473008FE3C7
:100120009FE10197F1F700C00000089582E00E946E
:1001300073008FE39FE10197F1F700C0000008957D
:10014000CF93A39AA29AA19AA09AA49AA59A8FE56E
:100150009AEE0197F1F700C00000AD98AC98C3E0AB
:10016000AC9A83E00E944900AC988FE19EE401972D
:10017000F1F700C00000C15099F7AC9A82E00E94EC
:100180004900AC988FE99FE00197F1F700C00000AB
:1001900088E20E94730088E00E94730081E00E9460
:1001A00073008FE39FE10197F1F700C0000086E044
:1001B0000E9473008CE0CF910C9473003E9A86B13C
:1001C000876086B9379A089597B18F71907E892B91
:1001D00087B9369A3699FECF84B195B108952091AA
:1001E000A000222381F02091A800FC0120838091AF
:1001F000A900FB0180838091AA00FA0180831092FC
:10020000A00081E0089580E008958EB583608EBDE2
:100210008EB58F7B8EBD89B7806289BF1092A0009A
:1002200008951F920F920FB60F9211242F933F93B0
:100230004F935F938F939F9386B597B52091A600B8
:100240003091A70046B557B55093A7004093A6003C
:100250004EB550E445274EBD4091A50041110CC05C
:100260001092A40041E04093A3001092A2001092CB
:10027000A1004EB54F7B4EBD88599109821B930B4F
:100280008A3621E0920718F01092A50032C0309112
:10029000A5004091A4008C389105A0F430FD10C059
:1002A0002091A3008091A1009091A200880F991F36
:1002B000822B9093A2008093A1004F5F4093A400F3
:1002C0003F5F15C02091A30081E028272093A30061
:1002D0008091A1009091A200880F991F822B90938A
:1002E000A2008093A1004F5F4093A4003E5F309333
:1002F000A5008091A4008D3019F51092A500809181
:10030000A00081111DC08091A1009091A200282F12
:100310002F732093A9009C01207C377046E036950E
:1003200027954A95E1F72093A80088279870892F90
:100330008695869586958093AA0081E08093A0009B
:100340009F918F915F914F913F912F910F900FBE91
:100350000F901F901895CF93DF93CDB7DEB7A4977A
:100360000FB6F894DEBF0FBECDBF11BA8FEF82BBC0
:10037000A79AAF9A17BA88BB0E94A0000E940501F5
:10038000789480E80E94730080E690E00E947900F3
:1003900080EC0E94730086E690E00E9479008799C5
:1003A00009C0AF980E948C0080E80E94730083E728
:1003B00090E075C0B09909C0AF9A0E948C0080E8A7
:1003C0000E94730086E790E06AC0859908C00E9489
:1003D0008C0080E80E94730089E790E060C08499F7
:1003E00008C00E948C0080E80E9473008BE790E0B8
:1003F00056C0839937C00E948C0080E80E94730029
:100400008DE790E00E94790061E8E62E60E0F62E2C
:100410008E010F5F1F4FAE014E5D5F4FBE016D5DE0
:100420007F4FCE0184960E94EF008823A1F38AA11A
:100430001F928F938BA11F928F938CA11F928F93EA
:10044000FF92EF921F930F930E94580280EC0E943C
:100450007300C8010E9479000FB6F894DEBF0FBE8A
:10046000CDBFD9CF829908C00E948C0080E80E943D
:10047000730088E990E013C0819908C00E948C0045
:1004800080E80E9473008AE990E009C0809909C061
:100490000E948C0080E80E9473008DE990E00E9429
:1004A00079008FE99FE00197F1F700C0000077CF56
:1004B000AEE0B0E0EEE5F2E00C9400050D891E8997
:1004C00086E08C831A8309838FEF9FE79E838D8359
:1004D000AE01475E5F4F6F89788DCE0101960E9415
:1004E0007A02EF81F885E00FF11F10822E96E4E08A
:1004F0000C941C05ACE0B0E0E0E8F2E00C94F204EF
:100500007C016B018A01FC0117821682838181FFC5
:10051000BDC1CE0101964C01F7019381F60193FD17
:10052000859193FF81916F01882309F4ABC18532D6
:1005300039F493FD859193FF81916F01853229F400
:10054000B70190E00E946204E7CF512C312C20E0EB
:100550002032A0F48B3269F030F4803259F08332CB
:1005600069F420612CC08D3239F0803339F4216078
:1005700026C02260246023C0286021C027FD27C038
:1005800030ED380F3A3078F426FF06C0FAE05F9E6F
:10059000300D1124532E13C08AE0389E300D1124E3
:1005A000332E20620CC08E3221F426FD6BC12064F4
:1005B00006C08C3611F4206802C0883641F4F6017A
:1005C00093FD859193FF81916F018111C1CF982F88
:1005D0009F7D9554933028F40C5F1F4FFFE3F98300
:1005E0000DC0833631F0833771F0833509F05BC07D
:1005F00022C0F801808189830E5F1F4F44244394F9
:10060000512C540115C03801F2E06F0E711CF80135
:10061000A080B18026FF03C0652D70E002C06FEF9F
:100620007FEFC5012C870E9457042C0183012C8584
:100630002F77222E17C03801F2E06F0E711CF801DF
:10064000A080B18026FF03C0652D70E002C06FEF6F
:100650007FEFC5012C870E944C042C012C8520685B
:10066000222E830123FC1BC0832D90E048165906DF
:10067000B0F4B70180E290E00E9462043A94F4CFB3
:10068000F50127FC859127FE81915F01B70190E07C
:100690000E94620431103A94F1E04F1A510841145B
:1006A000510471F7E5C0843611F0893639F5F80147
:1006B00027FF07C060817181828193810C5F1F4F8A
:1006C00008C060817181882777FD8095982F0E5F23
:1006D0001F4F2F76B22E97FF09C090958095709589
:1006E00061957F4F8F4F9F4F2068B22E2AE030E0F8
:1006F000A4010E949404A82EA81844C0853729F4A8
:100700002F7EB22E2AE030E025C0F22FF97FBF2ED7
:100710008F36C1F018F4883579F0B4C0803719F0FD
:10072000883721F0AFC02F2F2061B22EB4FE0DC04C
:100730008B2D8460B82E09C024FF0AC09F2F9660BD
:10074000B92E06C028E030E005C020E130E002C04C
:1007500020E132E0F801B7FE07C06081718182813B
:1007600093810C5F1F4F06C06081718180E090E033
:100770000E5F1F4FA4010E949404A82EA818FB2D01
:10078000FF77BF2EB6FE0BC02B2D2E7FA51450F485
:10079000B4FE0AC0B2FC08C02B2D2E7E05C07A2CF8
:1007A0002B2D03C07A2C01C0752C24FF0DC0FE0137
:1007B000EA0DF11D8081803311F4297E09C022FFEA
:1007C00006C07394739404C0822F867809F07394E2
:1007D00023FD13C020FF06C05A2C731418F4530CC9
:1007E0005718732C731468F4B70180E290E02C87DB
:1007F0000E94620473942C85F5CF731410F437189B
:1008000001C0312C24FF12C0B70180E390E02C8797
:100810000E9462042C8522FF17C021FF03C088E5D7
:1008200090E002C088E790E0B7010CC0822F867884
:1008300059F021FD02C080E201C08BE227FD8DE26C
:10084000B70190E00E946204A51438F4B70180E378
:1008500090E00E9462045A94F7CFAA94F401EA0D42
:10086000F11D8081B70190E00E946204A110F5CFD4
:10087000332009F451CEB70180E290E00E94620477
:100880003A94F6CFF7018681978102C08FEF9FEFF0
:100890002C96E2E10C940E05FC010590615070402D
:1008A0000110D8F7809590958E0F9F1F0895FC0139
:1008B0006150704001900110D8F7809590958E0F8F
:1008C0009F1F08950F931F93CF93DF93182F092F26
:1008D000EB018B8181FD03C08FEF9FEF20C082FF72
:1008E00010C04E815F812C813D81421753077CF4FB
:1008F000E881F9819F012F5F3F4F3983288310835F
:1009000006C0E885F985812F0995892B29F72E8165
:100910003F812F5F3F4F3F832E83812F902FDF91A9
:10092000CF911F910F910895FA01AA27283051F114
:10093000203181F1E8946F936E7F6E5F7F4F8F4F10
:100940009F4FAF4FB1E03ED0B4E03CD0670F781F6F
:10095000891F9A1FA11D680F791F8A1F911DA11D54
:100960006A0F711D811D911DA11D20D009F468948D
:100970003F912AE0269F11243019305D3193DEF635
:10098000CF010895462F4770405D4193B3E00FD0EB
:10099000C9F7F6CF462F4F70405D4A3318F0495DD6
:1009A00031FD4052419302D0A9F7EACFB4E0A695B9
:1009B0009795879577956795BA95C9F700976105DB
:1009C000710508959B01AC010A2E06945795479531
:1009D00037952795BA95C9F7620F731F841F951F26
:1009E000A01D08952F923F924F925F926F927F9237
:1009F0008F929F92AF92BF92CF92DF92EF92FF922F
:100A00000F931F93CF93DF93CDB7DEB7CA1BDB0BDA
:100A10000FB6F894DEBF0FBECDBF09942A8839887F
:100A200048885F846E847D848C849B84AA84B98486
:100A3000C884DF80EE80FD800C811B81AA81B98192
:100A4000CE0FD11D0FB6F894DEBF0FBECDBFED01A6
:060A50000895F894FFCFA9
:100A5600414F5320310076657273696F6E3A2030CC
:100A66002E31004C2B004C2D00502F530052633575
:100A76000020413A2530326420433A253032642042
:100A8600543A2530326420005200522D00522B0079
:00000001FF
