:100000000C942A000C943F000C943F000C943F0089
:100010000C943F000C943F000C943F000C943F0064
:100020000C943F000C943F000C943F000C943F0054
:100030000C943F000C943F000C943F000C943F0044
:100040000C943F000C943F000C943F000C943F0034
:100050000C943F0011241FBECFE5D8E0DEBFCDBF1A
:1000600010E0A0E6B0E0E0ECF2E002C005900D92F6
:10007000A838B107D9F70E94E7000C945E010C94F0
:10008000000080FF02C0AB9A01C0AB9881FF02C0A4
:10009000AA9A01C0AA9882FF02C0A99A01C0A99891
:1000A00083FF02C0A89A0895A8980895CF93C82FF7
:1000B000AC9A82958F700E944100AC98AC9A8C2FBC
:1000C0000E944100AC9887EC90E00197F1F700C0E6
:1000D0000000CF910895AD980C945600AD9A0C9401
:1000E0005600CF93DF93EC018991882319F00E9489
:1000F0006E00FACFDF91CF91089590E4699F800D53
:10010000112480680C946B0081E00E946B008FE3E7
:100110009FE10197F1F700C00000089582E00E947E
:100120006B008FE39FE10197F1F700C00000089595
:10013000CF93A39AA29AA19AA09AA49AA59A8FE57E
:100140009AEE0197F1F700C00000AD98AC98C3E0BB
:10015000AC9A83E00E944100AC988FE19EE4019745
:10016000F1F700C00000C15099F7AC9A82E00E94FC
:100170004100AC988FE99FE00197F1F700C00000C3
:1001800088E20E946B0088E00E946B0081E00E9480
:100190006B008FE39FE10197F1F700C0000086E05C
:1001A0000E946B008CE0CF910C946B003E9A86B15C
:1001B000876086B9379A089597B18F71907E892BA1
:1001C00087B9369A3699FECF84B195B1089511BAA0
:1001D0008FEF82BBA79AAF9A0E94980080E80E9496
:1001E0006B0080E690E00E94710080EC0E946B0042
:1001F00086E690E00E94710080B38F3749F4AF9893
:100200000E94840080E80E946B0083E790E04DC06C
:1002100080B38F3B49F4AF9A0E94840080E80E942B
:100220006B0086E790E041C080B38F3D41F40E94AF
:10023000840080E80E946B0089E790E036C080B3BC
:100240008F3E41F40E94840080E80E946B008BE79F
:1002500090E02BC080B3873F41F40E94840080E887
:100260000E946B008DE790E020C080B38B3F41F48B
:100270000E94840080E80E946B008FE790E015C028
:1002800080B38D3F41F40E94840080E80E946B009F
:1002900081E890E00AC080B38E3F49F40E94840058
:1002A00080E80E946B0084E890E00E9471008FE972
:1002B0009FE00197F1F700C000009ECFF894FFCFB8
:1002C000414F5320310076657273696F6E3A20306A
:1002D0002E31004C2B004C2D00502F53004D00525E
:0802E00000522D00522B00001A
:00000001FF
