:100000000C942A000C943F000C943F000C943F0089
:100010000C943F000C943F000C943F000C943F0064
:100020000C943F000C943F000C943F000C943F0054
:100030000C943F000C943F000C943F000C943F0044
:100040000C943F000C943F000C943F000C943F0034
:100050000C943F0011241FBECFE5D8E0DEBFCDBF1A
:1000600010E0A0E6B0E0EEE0F8E002C005900D92EE
:10007000A638B107D9F70E94E7000C9405040C9448
:10008000000080FF02C0AB9A01C0AB9881FF02C0A4
:10009000AA9A01C0AA9882FF02C0A99A01C0A99891
:1000A00083FF02C0A89A0895A8980895CF93C82FF7
:1000B000AC9A82958F700E944100AC98AC9A8C2FBC
:1000C0000E944100AC9887EC90E00197F1F700C0E6
:1000D0000000CF910895AD980C945600AD9A0C9401
:1000E0005600CF93DF93EC018991882319F00E9489
:1000F0006E00FACFDF91CF91089590E4699F800D53
:10010000112480680C946B0081E00E946B008FE3E7
:100110009FE10197F1F700C00000089582E00E947E
:100120006B008FE39FE10197F1F700C00000089595
:10013000CF93A39AA29AA19AA09AA49AA59A8FE57E
:100140009AEE0197F1F700C00000AD98AC98C3E0BB
:10015000AC9A83E00E944100AC988FE19EE4019745
:10016000F1F700C00000C15099F7AC9A82E00E94FC
:100170004100AC988FE99FE00197F1F700C00000C3
:1001800088E20E946B0088E00E946B0081E00E9480
:100190006B008FE39FE10197F1F700C0000086E05C
:1001A0000E946B008CE0CF910C946B003E9A86B15C
:1001B000876086B9379A089597B18F71907E892BA1
:1001C00087B9369A3699FECF84B195B10895CF9309
:1001D000DF9300D000D000D0CDB7DEB711BA8FEFDB
:1001E00082BBA79AAF9A0E9498000E94D60080E82E
:1001F0000E946B0080E690E00E94710080EC0E94FB
:100200006B0080E790E00E94710080E8E82E80E0BB
:10021000F82E8E010F5F1F4F80E00E94DC009F933D
:100220008F93FF92EF921F930F930E94340183EC00
:100230000E946B00C8010E94710081E00E94DC00F6
:100240009F938F93FF92EF921F930F930E9434011D
:100250008BEC0E946B00C8010E9471000FB6F894ED
:10026000DEBF0FBECDBFD8CFAEE0B0E0EAE3F1E035
:100270000C94DC030D891E8986E08C831A83098324
:100280008FEF9FE79E838D83AE01475E5F4F6F893F
:10029000788DCE0101960E945601EF81F885E00F1E
:1002A000F11F10822E96E4E00C94F803ACE0B0E06D
:1002B000ECE5F1E00C94CE037C016B018A01FC01BA
:1002C00017821682838181FFBDC1CE0101964C0148
:1002D000F7019381F60193FD859193FF81916F0161
:1002E000882309F4ABC1853239F493FD859193FFDE
:1002F00081916F01853229F4B70190E00E943E039D
:10030000E7CF512C312C20E02032A0F48B3269F061
:1003100030F4803259F0833269F420612CC08D3280
:1003200039F0803339F4216026C02260246023C074
:10033000286021C027FD27C030ED380F3A3078F40F
:1003400026FF06C0FAE05F9E300D1124532E13C025
:100350008AE0389E300D1124332E20620CC08E327C
:1003600021F426FD6BC1206406C08C3611F4206890
:1003700002C0883641F4F60193FD859193FF819187
:100380006F018111C1CF982F9F7D9554933028F430
:100390000C5F1F4FFFE3F9830DC0833631F08337C5
:1003A00071F0833509F05BC022C0F8018081898338
:1003B0000E5F1F4F44244394512C540115C0380143
:1003C000F2E06F0E711CF801A080B18026FF03C01F
:1003D000652D70E002C06FEF7FEFC5012C870E9492
:1003E00033032C0183012C852F77222E17C038016F
:1003F000F2E06F0E711CF801A080B18026FF03C0EF
:10040000652D70E002C06FEF7FEFC5012C870E9461
:1004100028032C012C852068222E830123FC1BC07D
:10042000832D90E048165906B0F4B70180E290E0C1
:100430000E943E033A94F4CFF50127FC859127FEF4
:1004400081915F01B70190E00E943E0331103A9420
:10045000F1E04F1A51084114510471F7E5C0843698
:1004600011F0893639F5F80127FF07C060817181E5
:10047000828193810C5F1F4F08C060817181882742
:1004800077FD8095982F0E5F1F4F2F76B22E97FF26
:1004900009C090958095709561957F4F8F4F9F4FC4
:1004A0002068B22E2AE030E0A4010E947003A82E3A
:1004B000A81844C0853729F42F7EB22E2AE030E0F8
:1004C00025C0F22FF97FBF2E8F36C1F018F4883582
:1004D00079F0B4C0803719F0883721F0AFC02F2FE2
:1004E0002061B22EB4FE0DC08B2D8460B82E09C0E1
:1004F00024FF0AC09F2F9660B92E06C028E030E086
:1005000005C020E130E002C020E132E0F801B7FE92
:1005100007C060817181828193810C5F1F4F06C08B
:100520006081718180E090E00E5F1F4FA4010E9406
:100530007003A82EA818FB2DFF77BF2EB6FE0BC0A8
:100540002B2D2E7FA51450F4B4FE0AC0B2FC08C0B7
:100550002B2D2E7E05C07A2C2B2D03C07A2C01C0AA
:10056000752C24FF0DC0FE01EA0DF11D8081803342
:1005700011F4297E09C022FF06C07394739404C04D
:10058000822F867809F0739423FD13C020FF06C0E4
:100590005A2C731418F4530C5718732C731468F4F2
:1005A000B70180E290E02C870E943E0373942C8573
:1005B000F5CF731410F4371801C0312C24FF12C08A
:1005C000B70180E390E02C870E943E032C8522FF38
:1005D00017C021FF03C088E590E002C088E790E0E3
:1005E000B7010CC0822F867859F021FD02C080E24D
:1005F00001C08BE227FD8DE2B70190E00E943E032F
:10060000A51438F4B70180E390E00E943E035A94A9
:10061000F7CFAA94F401EA0DF11D8081B70190E0B3
:100620000E943E03A110F5CF332009F451CEB7014B
:1006300080E290E00E943E033A94F6CFF701868173
:10064000978102C08FEF9FEF2C96E2E10C94EA03B2
:10065000FC010590615070400110D8F7809590958D
:100660008E0F9F1F0895FC01615070400190011092
:10067000D8F7809590958E0F9F1F08950F931F9325
:10068000CF93DF93182F092FEB018B8181FD03C0DE
:100690008FEF9FEF20C082FF10C04E815F812C81C1
:1006A0003D81421753077CF4E881F9819F012F5F58
:1006B0003F4F39832883108306C0E885F985812F51
:1006C0000995892B29F72E813F812F5F3F4F3F836B
:1006D0002E83812F902FDF91CF911F910F9108953D
:1006E000FA01AA27283051F1203181F1E8946F9363
:1006F0006E7F6E5F7F4F8F4F9F4FAF4FB1E03ED009
:10070000B4E03CD0670F781F891F9A1FA11D680FA6
:10071000791F8A1F911DA11D6A0F711D811D911DD9
:10072000A11D20D009F468943F912AE0269F11244E
:100730003019305D3193DEF6CF010895462F4770B2
:10074000405D4193B3E00FD0C9F7F6CF462F4F700D
:10075000405D4A3318F0495D31FD4052419302D06B
:10076000A9F7EACFB4E0A695979587957795679511
:10077000BA95C9F700976105710508959B01AC0111
:100780000A2E06945795479537952795BA95C9F738
:10079000620F731F841F951FA01D08952F923F9213
:1007A0004F925F926F927F928F929F92AF92BF9281
:1007B000CF92DF92EF92FF920F931F93CF93DF932D
:1007C000CDB7DEB7CA1BDB0B0FB6F894DEBF0FBE8A
:1007D000CDBF09942A88398848885F846E847D84D7
:1007E0008C849B84AA84B984C884DF80EE80FD80D9
:1007F0000C811B81AA81B981CE0FD11D0FB6F8944F
:0E080000DEBF0FBECDBFED010895F894FFCF0F
:10080E004C43442041444320646973706C61790009
:10081E0041303D202020202041313D20202020004D
:06082E00253034640000D7
:00000001FF
