:100000000C942A000C943F000C943F000C943F0089
:100010000C943F000C943F000C943F000C943F0064
:100020000C943F000C943F000C943F000C943F0054
:100030000C943F000C943F000C943F000C943F0044
:100040000C943F000C943F000C943F000C943F0034
:100050000C943F0011241FBECFE5D8E0DEBFCDBF1A
:1000600010E0A0E6B0E0EEE6F1E002C005900D92EF
:10007000AA36B107D9F70E94A5000C94B5000C94DC
:100080000000AC9A982F92959F7090FF02C0AB9A97
:1000900001C0AB9891FF02C0AA9A01C0AA9892FF32
:1000A00002C0A99A01C0A998987011F0A89A01C03D
:1000B000A898AC98AC9A80FF02C0AB9A01C0AB98EC
:1000C00081FF02C0AA9A01C0AA9882FF02C0A99A21
:1000D00001C0A99883FF02C0A89A01C0A898AC9853
:1000E0008FED91E00197F1F700C000000895AD9801
:1000F0000C944100AD9A0C944100CF93DF93EC0136
:100100008991882319F00E947A00FACFDF91CF916C
:10011000089581E00C947700089584B38F6384BBC5
:1001200086E00E9477008CE00E94770087E10E94C1
:10013000770088E20E9477000E9489008FE193E0B7
:100140000197F1F700C0000008950E948D0080E63D
:1001500090E00E947D002FEF89E698E121508040D9
:0E0160009040E1F700C00000F2CFF894FFCF0E
:0A016E00414F5320302E312E300097
:00000001FF
