:100000000C942A000C9434000C9434000C943400AA
:100010000C9434000C9434000C9434000C94340090
:100020000C9434000C9434000C9434000C94340080
:100030000C9434000C9434000C9434000C94340070
:100040000C9434000C9434000C9434000C94340060
:100050000C94340011241FBECFE5D8E0DEBFCDBF25
:100060000E949A000C94A7000C940000AC9A982F60
:1000700092959F7090FF02C0AB9A01C0AB9891FF20
:1000800002C0AA9A01C0AA9892FF02C0A99A01C010
:10009000A998987011F0A89A01C0A898AC98AC9A49
:1000A00080FF02C0AB9A01C0AB9881FF02C0AA9A40
:1000B00001C0AA9882FF02C0A99A01C0A99883FF33
:1000C00002C0A89A01C0A898AC988FED91E0019762
:1000D000F1F700C000000895AD980C943600AD9A79
:1000E0000C943600CF93DF93EC018991882319F0AB
:1000F0000E946F00FACFDF91CF91089581E00C94B8
:100100006C00089584B38F6384BB86E00E946C000A
:100110008CE00E946C0087E10E946C0088E20E94E3
:100120006C000E947E008FE193E00197F1F700C020
:100130000000089511BA81E082BBA79A80B38F3F77
:1001400011F085B302C085B3805885BBF7CFF89412
:02015000FFCFDF
:00000001FF
